:10000300E4F508F509F50A750B0175C1351202927D
:10001300E4FBFDFF1201741200678E0A8F0B75C19A
:10002300350509E50970020508640A45087010AF33
:100033000BAE0A12013B8E0A8F0BE4F508F509E4B7
:10004300F50EF50FF50CF50DC3E50D950BE50C95C8
:100053000A50CBAF0DAE0C120100050DE50D70E893
:04006300050C80E424
:0702BD0075C1357F6CDFFE07
:0102C4002217
:1002920075C13500007F2B7E067DCBDDFEDEFCDFE7
:0102A200FA61
:0102A3002238
:0D02A400E4F5C7F5C5F5C675C380F5C422A5
:10021F0075C78275C5018FC48EC375C65A75C6A5BD
:08022F001202BDAFC21202A4CD
:0102370022A4
:1002510075C78275C5028FC48EC38DC275C65A75A6
:08026100C6A51202BD0202A4B1
:1002690075C78275C5038FC48EC375C65A75C6A571
:060279001202BD0202A406
:100067007510007511017F017E0012021F8F12E4C7
:10007700FFFE12021FAD07E512FE7C00E42DF5110D
:10008700EC3EF510D3E51194FFE51094035006E517
:10009700114510701C751000751101E4FFFE120266
:1000A70069E4FD7F01FE1202517D01E4FFFE1202A9
:0500B70051AE10AF1175
:0100BC002221
:02020200AC0648
:100204008C128F13E4FFFE120269AD127F017E008F
:0B021400120251AD13E4FFFE02025184
:1001D700C293C294D2937B08C294AE07EE13929552
:1001E700EFC313FFD294DBF07B08C294AE05EE1386
:0A01F7009295EDC313FDD294DBF0E6
:0102010022DA
:1001AB00C293C294D2937D08C294AE07EE1392957C
:1001BB00EFC313FFD294DDF07D08A295E433D29404
:0B01CB00C313FEC294DDF3C293AF0625
:0101D6002206
:10017400AC07AA03A905E4FD7F8E1201D7AD047F65
:10018400801201D7AD017F821201D7AD027F8412A4
:1001940001D77D017F861201D77D017F881201D7A7
:0701A400E4FD7F8C0201D78E
:04013B008E108F1182
:10013F007F871201ABEF643170260511E511700254
:10014F000510FFAE101202027F851201ABAB077FC5
:10015F00831201ABAC077F811201ABAD04120174A6
:04016F00AE10AF110E
:010173002269
:1000BD00ED131313541FFE7410A806088002C333EA
:1000CD00D8FCFEEF131313541FFF7401A80708800B
:1000DD0002C333D8FC2EF4FFE4FEC2B6EF3392B365
:1000ED00EF25E0FFD2B60EBE08F0C2B3C2B70000D6
:0200FD00D2B778
:0100FF0022DE
:10023800E4FEC291EF339290EF25E0FFD2910EBE1B
:0802480008F0C2920000D292FE
:01025000228B
:10027F00EF1392B0EFC3131392B1EF1313543F1355
:03028F0092B22206
:10010000AB07AA06EB7805CEC313CE13D8F9FFEBE5
:10011000541FFD1200BDEB5407FF7401A8070880AF
:1001200002C333D8FCFF120238EBAE027805CEC30F
:0B01300013CE13D8F95407FF02027F22
:030000000202B148
:0C02B100787FE4F6D8FD7581130200038D
:00000001FF
