:10000300E4F508F509F50A750B0175C135FBFDFF2C
:100013001201781200B48E0A8F0B75C1350509E5FC
:100023000970020508640A45087010AF0BAE0A1286
:10003300013F8E0A8F0BE4F508F509E4F50CF50D85
:10004300C3E50D950BE50C950A50CFAF0DAE0C1221
:0F00530000621202B8050DE50D70E5050C80E1A5
:0402B8007F6CDFFE7A
:0102BC00221F
:0E02830000007F2B7E067DCBDDFEDEFCDFFA69
:01029100224A
:0D029200E4F5C7F5C5F5C675C380F5C422B7
:1002230075C78275C5018FC48EC375C65A75C6A5B9
:080233001202B8AFC2120292E0
:01023B0022A0
:1002550075C78275C5028FC48EC38DC275C65A75A2
:08026500C6A51202B8020292C4
:10026D0075C78275C5038FC48EC375C65A75C6A56D
:06027D001202B802029219
:1000B4007F017E001202238F10E4FFFE120223ADA3
:1000C40007E510FE7C00E42DF50FEC3EF50ED3E5BC
:1000D4000F94FFE50E9403401C750E00750F01E4A8
:1000E400FFFE12026DE4FD7F01FE1202557D01E464
:0900F400FFFE120255AE0EAF0F23
:0100FD0022E0
:02020600AC0644
:100208008C108F11E4FFFE12026DAD107F017E008D
:0B021800120255AD11E4FFFE0202557A
:1001DB00C293C294D2937B08C294AE07EE1392954E
:1001EB00EFC313FFD294DBF07B08C294AE05EE1382
:0A01FB009295EDC313FDD294DBF0E2
:0102050022D6
:1001AF00C293C294D2937D08C294AE07EE13929578
:1001BF00EFC313FFD294DDF07D08A295E433D29400
:0B01CF00C313FEC294DDF3C293AF0621
:0101DA002202
:10017800AC07AA03A905E4FD7F8E1201DBAD047F5D
:10018800801201DBAD017F821201DBAD027F841298
:1001980001DB7D017F861201DB7D017F881201DB97
:0701A800E4FD7F8C0201DB86
:04013F008E0E8F0F82
:100143007F871201AFEF64317026050FE50F700250
:10015300050EFFAE0E1202067F851201AFAB077FBD
:10016300831201AFAC077F811201AFAD0412017896
:04017300AE0EAF0F0E
:010177002265
:1000FE00ED131313541FFE7410A806088002C333A9
:10010E00D8FCFEEF131313541FFF7401A8070880C9
:10011E0002C333D8FC2EF4FFE4FEC2B6EF3392B323
:10012E00EF25E0FFD2B60EBE08F0C2B70000D2B780
:01013E00229E
:10023C00E4FEC291EF339290EF25E0FFD2910EBE17
:08024C0008F0C2920000D292FA
:010254002287
:0D029F00A20592B0A20492B1A20392B22275
:04006200AD07AC0634
:10006600B297ED7805CEC313CE13D8F9FEED541F23
:10007600FD5407FF7401A807088002C333D8FCFBB0
:10008600EE139202EE5407FFC313139201EF1313FC
:10009600543F139200AF061200FEAF0312023CA2B9
:0E00A600009203A2019204A202920502029FA0
:030000000202AC4D
:0C02AC00787FE4F6D8FD75812002000385
:00000001FF
