:10000300E4F508F509F50A750B0175C1351202AB64
:10001300E4FBFDFF1201BD1200678E0A8F0B75C151
:10002300350509E50970020508640A45087010AF33
:100033000BAE0A1200BD8E0A8F0BE4F508F509E436
:10004300F50EF50FF50CF50DC3E50D950BE50C95C8
:100053000A50CBAF0DAE0C12014D050DE50D70E846
:04006300050C80E424
:0702D60075C1357F6CDFFEEE
:0102DD0022FE
:1002AB0075C13500007F2B7E067DCBDDFEDEFCDFCE
:0102BB00FA48
:0102BC00221F
:0D02BD00E4F5C7F5C5F5C675C380F5C4228C
:1002380075C78275C5018FC48EC375C65A75C6A5A4
:080248001202D6AFC21202BD82
:01025000228B
:10026A0075C78275C5028FC48EC38DC275C65A758D
:08027A00C6A51202D60202BD66
:1002820075C78275C5038FC48EC375C65A75C6A558
:060292001202D60202BDBB
:100067007510007511017F017E001202388F12E4AE
:10007700FFFE120238AD07E512FE7C00E42DF511F4
:10008700EC3EF510D3E51194FFE51094035006E517
:10009700114510701C751000751101E4FFFE120266
:1000A70082E4FD7F01FE12026A7D01E4FFFE120277
:0500B7006AAE10AF115C
:0100BC002221
:02021B00AC062F
:10021D008C128F13E4FFFE120282AD127F017E005D
:0B022D0012026AAD13E4FFFE02026A39
:1001F200C293C294D2937E08C294EF139295D29482
:10020200EFC313FFDEF27E08C294ED139295D294EF
:08021200EDC313FDDEF2C293FF
:01021A0022C1
:10018800C293C294D2937E08C294EF139295D294EC
:10019800EFC313FFDEF2E4FF00007E08EFC313FF96
:1001A800C294309503430780D294DEF0C293D29470
:0401B800C295D29585
:0101BC002220
:1001BD00AC07AA05E4FD7F8E1201F2AD047F80121B
:1001CD0001F2AD027F821201F2AD037F841201F2C2
:1001DD007D017F861201F27D017F881201F2E4FD1F
:0501ED007F8C0201F20D
:0400BD008E108F1101
:1000C1007F87120188EF6431703A0511E5117002E2
:1000D1000510D394FFE5109403400C74012511F52C
:1000E1001174FC3510F510AF11AE1012021B7F8593
:1000F100120188AB077F83120188AD077F8112014E
:08010100881201BDAE10AF1120
:0101090022D3
:10010A00ED131313541FFE7410A806088002C3339C
:10011A00D8FCFEEF131313541FFF7401A8070880BD
:10012A0002C333D8FC2EF4FFE4FEC2B6EF3392B317
:10013A00EF25E0FFD2B60EBE08F0C2B3C2B7000088
:02014A00D2B72A
:01014C002290
:10025100E4FEC291EF339290EF25E0FFD2910EBE02
:0802610008F0C2920000D292E5
:010269002272
:10029800EF1392B0EFC3131392B1EF1313543F133C
:0302A80092B222ED
:10014D00AB07AA06EB7805CEC313CE13D8F9FFEB98
:10015D00541FFD12010AEB5407FF7401A807088014
:10016D0002C333D8FCFF120251EBAE027805CEC3A9
:0B017D0013CE13D8F95407FF020298BC
:030000000202CA2F
:0C02CA00787FE4F6D8FD75811302000374
:00000001FF
