:10000300E4F508F509F50A750B0175C135FBFDFF2C
:1000130012014E12007E8E0A8F0B75C1350509E55C
:100023000970020508640A45087010AF0BAE0A1286
:1000330001158E0A8F0BE4F508F509750A03750B94
:100043008EE4F50CF50DC3E50D950BE50C950A5003
:10005300C9AF0DAE0C120185E4F50EF50F1202CDFA
:10006300050FE50F7002050EC3941EE50E940040C4
:0B007300EC050DE50D70CF050C80CBF7
:0702CD0075C1357F6CDFFEF7
:0102D4002207
:1002A20075C13500007F2B7E067DCBDDFEDEFCDFD7
:0102B200FA51
:0102B3002228
:0D02B400E4F5C7F5C5F5C675C380F5C42295
:10022D0075C78275C5018FC48EC375C65A75C6A5AF
:08023D001202CDAFC21202B49F
:010245002296
:10025F0075C78275C5028FC48EC38DC275C65A7598
:08026F00C6A51202CD0202B483
:1002770075C78275C5038FC48EC375C65A75C6A563
:060287001202CD0202B4D8
:10007E007510007511017F017E0012022D8F12E4A2
:10008E00FFFE12022DAD07E512FE7C00E42DF511E8
:10009E00EC3EF510D3E51194FFE51094035006E500
:1000AE00114510701C751000751101E4FFFE12024F
:1000BE0077E4FD7F01FE12025F7D01E4FFFE120276
:0500CE005FAE10AF1150
:0100D300220A
:02021000AC063A
:100212008C128F13E4FFFE120277AD127F017E0073
:0B02220012025FAD13E4FFFE02025F5A
:1001E500C293C294D2937B08C294AE07EE13929544
:1001F500EFC313FFD294DBF07B08C294AE05EE1378
:0A0205009295EDC313FDD294DBF0D7
:01020F0022CC
:1001B900C293C294D2937D08C294AE07EE1392956E
:1001C900EFC313FFD294DDF07D08A295E433D294F6
:0B01D900C313FEC294DDF3C293AF0617
:0101E40022F8
:10014E00AC07AA03A905E4FD7F8E1201E5AD047F7D
:10015E00801201E5AD017F821201E5AD027F8412AE
:10016E0001E57D017F861201E57D017F881201E5A3
:07017E00E4FD7F8C0201E5A6
:040115008E108F11A8
:100119007F871201B9EF643170260511E51170026C
:100129000510FFAE101202107F851201B9AB077FCF
:10013900831201B9AC077F811201B9AD0412014ED6
:04014900AE10AF1134
:01014D00228F
:1000D400ED131313541FFE7410A806088002C333D3
:1000E400D8FCFEEF131313541FFF7401A8070880F4
:1000F40002C333D8FC2EF4FFE4FEC2B6EF3392B34E
:10010400EF25E0FFD2B60EBE08F0C2B70000D2B7AA
:0101140022C8
:10024600E4FEC291EF339290EF25E0FFD2910EBE0D
:0802560008F0C2920000D292F0
:01025E00227D
:10028D00EF5407700575A055800375A0AAE5B0540D
:05029D00F84FF5B0224E
:04018500AD07AC0610
:10018900ED7805CEC313CE13D8F9FE5407FBED5411
:100199001FFD5407FF7401A807088002C333D8FC68
:1001A900FCAF061200D4AF04120246AF0302028D5F
:030000000202C138
:0C02C100787FE4F6D8FD7581130200037D
:00000001FF
