:10023E00C290C291D2907E08C291EF139292D29147
:10024E00EFC313FFDEF2E4FF00007E08EFC313FFDF
:10025E00C291309203430780D291DEF0C290D291C8
:04026E00C292D292D4
:010272002269
:080106008F188E178D168C1561
:10010E001202738F188E178D168C15AF1CAE1BAD89
:10011E001AAC191202738F1C8E1B8D1A8C197B0749
:10012E007A00AF18AE17AD16AC15A903A8011202CE
:10013E0080EF5401FFEF24FF92B2AF1CAE1BAD1A3D
:10014E00AC19A801120280EF5401FFEF24FF92B305
:10015E00EB2408F9AF18AE17AD16AC15F8120280E5
:10016E00EF5401FFEF24FF92B6AF1CAE1BAD1AACDD
:10017E0019A801120280EF5401FFEF24FF9294EBB5
:10018E002410F9AF18AE17AD16AC15F8120280EFA9
:10019E005401FFEF24FF92B7AF1CAE1BAD1AAC1982
:1001AE00A801120280EF5401FFEF24FF9295EB2479
:1001BE0018F9AF18AE17AD16AC15F8120280EF5441
:1001CE0001FFEF24FF9293AF1CAE1BAD1AAC19A822
:1001DE0001120280EF5401FFEF24FF9296C2B0008D
:1001EE00D2B0EB1B70011AEBF47002EAF46003025A
:0801FE000130C2B10000D2B1D2
:0102060022D5
:04000300AB07AA0697
:10000700E4F510F50FF50EF50DF514F513F512F5EA
:1000170011EB7805CEC313CE13D8F9F50AEB541FAD
:10002700F50BE4F50CE50CC3950A504FE475100188
:10003700F50FF50EF50DAF10AE0FAD0EAC0DA90C0B
:10004700A8011202938F108E0F8D0E8C0D12027362
:10005700E4751CFF751BFFF51AF519120106AF10A1
:10006700AE0FAD0EAC0D120273E4F51CF51B751A3D
:10007700FF7519FF120106050C80AAE4F50CE50CC3
:10008700C3950B502BAF14AE13AD12AC1178011200
:1000970002938F148E138D128C11E5144401F514FD
:1000A700E513F513E512F512E511F511050C80CEF0
:1000B700E4751001F50FF50EF50DAF10AE0FAD0E8F
:1000C700AC0DA90AA8011202938F108E0F8D0E8C0A
:1000D7000D120273E514F51CE513F51BE4F51AF58B
:1000E70019120106AF10AE0FAD0EAC0D120273E47C
:0F00F700F51CF51BE512F51AE511F519020106C6
:10020700E4F508E508541FD3940750207F811202B4
:100217003E8FA0850882758300750964AF091509AB
:10022700EF6009AF82AE8312000380F00508E5088E
:07023700C3948040CE80C992
:030000000202A653
:0C02A600787FE4F6D8FD75811C02020789
:0D027300CFF4CFCEF4CECDF4CDCCF4CC2220
:10028000E8600FECC313FCED13FDEE13FEEF13FF5C
:03029000D8F12280
:10029300E8600FEFC333FFEE33FEED33FDEC33FCC9
:0302A300D8F1226D
:00000001FF
