:0C02E100042700000000042300000000BF
:1002AC00C290C291D2907E08C291EF139292D291D9
:1002BC00EFC313FFDEF2E4FF00007E08EFC313FF71
:1002CC00C291309203430780D291DEF0C290D2915A
:0402DC00C292D29266
:0102E00022FB
:10022D008F228E218D208C1FEF1201D3AF22AE2194
:10023D00AD20AC1F7808120207900001EF1201E506
:10024D00AF22AE21AD20AC1F781012020790000234
:10025D00EF1201E5AF22AE21AD20AC1F78181202CE
:08026D0007900003EF0201E518
:10008F00E4FFFEFD74272DF8E6FC30E00343068005
:10009F00EC30E103430604EC30E203430701EC309C
:1000AF00E303430610EC30E403430780EC30E50331
:1000BF00430702EC30E603430740EC30E703430706
:1000CF000874232DF8E6FC30E003430608EC30E11A
:1000DF0003430720EC30E203430710EC30E3034304
:1000EF000640EC30E403430704EC30E503430620FD
:1000FF00EC30E603430602EC30E7034306010DED57
:04010F006404708094
:0101130022C9
:100175007B007A00792712022DAF1EAE1DAD1CAC97
:100185001B7A00792312022D12008F7F077E00E56E
:10019500271392B2E5231392B3E5281392B6E5240B
:1001A500139294E5291392B7E525139295E52A1341
:1001B5009293E526139296C2B000D2B0EF1F70015C
:0D01C5001EBEFFCBBFFFC8C2B10000D2B10B
:0101D200220A
:04011400AB07AA0685
:10011800E4F512F511F510F50FF516F515F514F5CA
:1001280013EB7805CEC313CE13D8F9F50CEB541F97
:10013800F50D74FFF51EF51DF51CF51B7F007E00FF
:100148007D007C00120175AF12AE11AD10AC0FA985
:100158000CA80112021A8F128E118D108C0F8516A1
:0D0168001E85151D85141C85131B020175D5
:10027500E4F50AE50A541FD3940750207F81120242
:10028500AC8FA0750800850A09750B64AF0B150BBB
:10029500EF6009AF09AE0812011480F0050AE50AFE
:0702A500C3948040CE80C924
:03000000020003F8
:0C000300787FE4F6D8FD75812A02004ADF
:1001D300BB010689828A83F0225002F722BBFE010B
:0201E300F32205
:1001E500F8BB010DE58229F582E5833AF583E8F050
:1001F500225006E92582C8F622BBFE05E92582C8FC
:02020500F222E3
:10020700E8600FECC313FCED13FDEE13FEEF13FFD5
:03021700D8F122F9
:10021A00E8600FEFC333FFEE33FEED33FDEC33FC42
:03022A00D8F122E6
:10000F00020275E493A3F8E493A34003F68001F290
:10001F0008DFF48029E493A3F85407240CC8C333F2
:10002F00C4540F4420C8834004F456800146F6DFC1
:10003F00E4800B01020408102040809002E1E47E6E
:10004F00019360BCA3FF543F30E509541FFEE493B6
:10005F00A360010ECF54C025E060A840B8E493A37D
:10006F00FAE493A3F8E493A3C8C582C8CAC583CAA8
:10007F00F0A3C8C582C8CAC583CADFE9DEE780BE60
:0102ED000010
:00000001FF
