:0C02A800042700000000042300000000F8
:10027300C290C291D2907E08C291EF139292D29112
:10028300EFC313FFDEF2E4FF00007E08EFC313FFAA
:10029300C291309203430780D291DEF0C290D29193
:0402A300C292D2929F
:0102A7002234
:100172008F228E218D208C1FEF1201BAAF22AE2169
:10018200AD20AC1F78081201EE900001EF1201CCF5
:10019200AF22AE21AD20AC1F78101201EE9000020A
:1001A200EF1201CCAF22AE21AD20AC1F78181201A4
:0801B200EE900003EF0201CC06
:10008F00E4FFFEFD74272DF8E6FC30E00343068005
:10009F00EC30E103430604EC30E203430701EC309C
:1000AF00E303430610EC30E403430780EC30E50331
:1000BF00430702EC30E603430740EC30E703430706
:1000CF000874232DF8E6FC30E003430608EC30E11A
:1000DF0003430720EC30E203430710EC30E3034304
:1000EF000640EC30E403430704EC30E503430620FD
:1000FF00EC30E603430602EC30E7034306010DED57
:04010F006404708094
:0101130022C9
:100114007B007A007927120172AF1EAE1DAD1CACB4
:100124001B7A00792312017212008F7F077E00E58B
:10013400271392B2E5231392B3E5281392B6E5246C
:10014400139294E5291392B7E525139295E52A13A2
:100154009293E526139296C2B000D2B0EF1F7001BD
:0D0164001EBEFFCBBFFFC8C2B10000D2B16C
:01017100226B
:04020100AB07AA0697
:10020500E4F512F511F510F50FF516F515F514F5DC
:1002150013EB7805CEC313CE13D8F9F50CEB541FA9
:10022500F50D74FFF51EF51DF51CF51B7F007E0011
:070235007D007C00020114B2
:10023C00E4F50AE50A541FD3940750207F8112027B
:10024C00738FA0750800850A09750B64AF0B150B2D
:10025C00EF6009AF09AE0812020180F0050AE50A49
:07026C00C3948040CE80C95D
:03000000020003F8
:0C000300787FE4F6D8FD75812A02004ADF
:1001BA00BB010689828A83F0225002F722BBFE0124
:0201CA00F3221E
:1001CC00F8BB010DE58229F582E5833AF583E8F069
:1001DC00225006E92582C8F622BBFE05E92582C815
:0201EC00F222FD
:1001EE00E8600FECC313FCED13FDEE13FEEF13FFEF
:0301FE00D8F12213
:10000F0002023CE493A3F8E493A34003F68001F2C9
:10001F0008DFF48029E493A3F85407240CC8C333F2
:10002F00C4540F4420C8834004F456800146F6DFC1
:10003F00E4800B01020408102040809002A8E47EA7
:10004F00019360BCA3FF543F30E509541FFEE493B6
:10005F00A360010ECF54C025E060A840B8E493A37D
:10006F00FAE493A3F8E493A3C8C582C8CAC583CAA8
:10007F00F0A3C8C582C8CAC583CADFE9DEE780BE60
:0102B4000049
:00000001FF
