:10026000C290C291D2907E08C291EF139292D29125
:10027000EFC313FFDEF2E4FF00007E08EFC313FFBD
:10028000C291309203430780D291DEF0C290D291A6
:04029000C292D292B2
:010294002247
:1000030075F008A4F9F81202B58F108E0F8D0E8CBF
:0B0013000D74FFF51CF51BF51AF51924
:08001E008F188E178D168C154A
:100026001202958F188E178D168C15AF1CAE1BAD50
:100036001AAC191202958F1C8E1B8D1A8C197B0710
:100046007A00AF18AE17AD16AC15A903A8011202B7
:10005600A2EF5401FFEF24FF92B2AF1CAE1BAD1A04
:10006600AC19A8011202A2EF5401FFEF24FF92B3CC
:10007600EB2408F9AF18AE17AD16AC15F81202A2AC
:10008600EF5401FFEF24FF92B6AF1CAE1BAD1AACC6
:1000960019A8011202A2EF5401FFEF24FF9294EB7C
:1000A6002410F9AF18AE17AD16AC15F81202A2EF70
:1000B6005401FFEF24FF92B7AF1CAE1BAD1AAC196B
:1000C600A8011202A2EF5401FFEF24FF9295EB2440
:1000D60018F9AF18AE17AD16AC15F81202A2EF5408
:1000E60001FFEF24FF9293AF1CAE1BAD1AAC19A80B
:1000F600011202A2EF5401FFEF24FF9296C2B00054
:10010600D2B0EB1B70011AEBF47002EAF460030242
:080116000048C2B10000D2B1A3
:01011E0022BE
:04011F00AB07AA067A
:10012300E4F510F50FF50EF50DF514F513F512F5CD
:1001330011EB7805CEC313CE13D8F9F50AEB541F90
:10014300F50BE4F50CE50A131313541FFFE50CC379
:100153009F501BE47510FFF50FF50EF50DAF10AEB4
:100163000FAD0EAC0DE50C120003050C80D7E4F5C2
:1001730010F50FF50EF50DF50CE50A5407FFE50C28
:10018300C39F502BAF10AE0FAD0EAC0D7801120212
:10019300B58F108E0F8D0E8C0DE5104401F510E513
:1001A3000FF50FE50EF50EE50DF50D050C80CAAF45
:1001B30010AE0FAD0EAC0DE50A131313541F12004E
:1001C30003E4F50CE50CC3950B502BAF14AE13AD44
:1001D30012AC1178011202B58F148E138D128C118B
:1001E300E5144401F514E513F513E512F512E511D1
:1001F300F511050C80CEE4751001F50FF50EF50D24
:10020300AF10AE0FAD0EAC0DA90AA8011202B58F47
:10021300108E0F8D0E8C0D85141C85131B85121AE1
:0602230085111902001E06
:10022900E4F508E508541FD3940750207F81120292
:10023900608FA0850882758300750964AF09150967
:10024900EF6009AF82AE8312011F80F00508E5084F
:07025900C3948040CE80C970
:030000000202C831
:0C02C800787FE4F6D8FD75811C02022945
:0D029500CFF4CFCEF4CECDF4CDCCF4CC22FE
:1002A200E8600FECC313FCED13FDEE13FEEF13FF3A
:0302B200D8F1225E
:1002B500E8600FEFC333FFEE33FEED33FDEC33FCA7
:0302C500D8F1224B
:00000001FF
