:1001A000E4F508F509F50A750B0175C1351203056B
:1001B000E4FBFDFF12021D1200B58E0A8F0B75C104
:1001C000350509E50970020508646445087010AF3B
:1001D0000BAE0A12010B8E0A8F0BE4F508F509AF7E
:0801E0000BAE0A12000380D6E9
:0703300075C1357F6CDFFE93
:0103370022A3
:1003050075C13500007F2B7E067DCBDDFEDEFCDF73
:01031500FAED
:0103160022C4
:0D031700E4F5C7F5C5F5C675C380F5C42231
:1002BE0075C78275C5018FC48EC375C65A75C6A51E
:0802CE00120330AFC212031746
:0102D6002205
:1002D70075C78275C5028FC48EC38DC275C65A7520
:0802E700C6A512033002031743
:1002EF0075C78275C5038FC48EC375C65A75C6A5EB
:0602FF0012033002031798
:1000B500750C00750D017F017E001202BE8F0EE4E6
:1000C500FFFE1202BEAD07E50EFE7C00E42DF50D28
:1000D500EC3EF50CD3E50D94FFE50C94035006E5D5
:1000E5000D450C701C750C00750D01E4FFFE120228
:1000F500EFE4FD7F01FE1202D77D01E4FFFE12024F
:05010500D7AE0CAF0DA8
:01010A0022D2
:0202A100AC06A9
:1002A3008C0E8F0FE4FFFE1202EFAD0E7F017E0076
:0B02B3001202D7AD0FE4FFFE0202D7DD
:10025200C290C291D2907E08C291EF139292D29133
:10026200EFC313FFDEF27E08C291ED139292D29198
:08027200EDC313FDDEF2C290A2
:01027A002261
:1001E800C290C291D2907E08C291EF139292D2919E
:1001F800EFC313FFDEF2E4FF00007E08EFC313FF36
:10020800C291309203430780D291DEF0C290D2911E
:04021800C292D2922A
:01021C0022BF
:10021D00AC07AA05E4FD7F8E120252AD047F801259
:10022D000252AD027F82120252AD037F841202523E
:10023D007D017F861202527D017F88120252E4FDFC
:05024D007F8C0202524B
:04010B008E0C8F0DBA
:10010F007F871201E8EF64317039050DE50D70023C
:10011F00050CD39400E50C9404400BE4250DF50D6C
:10012F0074FC350CF50CAF0DAE0C1202A17F8512CD
:10013F0001E8AB077F831201E8AD077F811201E869
:07014F0012021DAE0CAF0D02
:010156002286
:080157008F178E168D158C1414
:10015F007B1FAF17AE16AD15AC14A80312027BEFC1
:10016F005401FFEF24FF92B3AF1BAE1AAD19AC18B9
:10017F00A80312027BEF5401FFEF24FF92B4C2B128
:10018F0000D2B11BEBC3940050C8C2B20000D2B270
:01019F00223D
:04000300AB07AA0697
:10000700E4F50FF50EF50DF50CF513F512F511F5F1
:1000170010EB7805CEC313CE13D8F9F9EB541FFBB9
:10002700E4FAEAC399502AAF0FAE0EAD0DAC0C78C7
:100037000112028E8F0F8E0E8D0D8C0CE50F440171
:10004700F50FE50EF50EE50DF50DE50CF50C0A803F
:10005700D1E4FAEAC39B502AAF13AE12AD11AC102C
:10006700780112028E8F138E128D118C10E51344B6
:1000770001F513E512F512E511F511E510F5100A72
:1000870080D174FFF51BF51AF519F518AF0FAE0EF1
:10009700AD0DAC0C12015785131B85121A8511196A
:0E00A7008510187F007E007D007C000201574E
:03000000020324D4
:0C032400787FE4F6D8FD75811B0201A073
:10027B00E8600FECC313FCED13FDEE13FEEF13FF61
:03028B00D8F12285
:10028E00E8600FEFC333FFEE33FEED33FDEC33FCCE
:03029E00D8F12272
:00000001FF
