:10010B00E4F508F509F50A750B0175C135FBFDFF23
:10011B001202221200B58E0A8F0B75C1350509E547
:10012B000970020508640A45087010AF0BAE0A127D
:10013B0001588E0A8F0BE4F508F509750A01750B4A
:0D014B009063A0FFAF0BAE0A12000380CD41
:0703350075C1357F6CDFFE8E
:01033C00229E
:10030A0075C13500007F2B7E067DCBDDFEDEFCDF6E
:01031A00FAE8
:01031B0022BF
:0D031C00E4F5C7F5C5F5C675C380F5C4222C
:1002C30075C78275C5018FC48EC375C65A75C6A519
:0802D300120335AFC212031C37
:0102DB002200
:1002DC0075C78275C5028FC48EC38DC275C65A751B
:0802EC00C6A512033502031C34
:1002F40075C78275C5038FC48EC375C65A75C6A5E6
:0603040012033502031C88
:1000B500750C00750D017F017E001202C38F0EE4E1
:1000C500FFFE1202C3AD07E50EFE7C00E42DF50D23
:1000D500EC3EF50CD3E50D94FFE50C94035006E5D5
:1000E5000D450C701C750C00750D01E4FFFE120228
:1000F500F4E4FD7F01FE1202DC7D01E4FFFE120245
:05010500DCAE0CAF0DA3
:01010A0022D2
:0202A600AC06A4
:1002A8008C0E8F0FE4FFFE1202F4AD0E7F017E006C
:0B02B8001202DCAD0FE4FFFE0202DCCE
:10025700C290C291D2907E08C291EF139292D2912E
:10026700EFC313FFDEF27E08C291ED139292D29193
:08027700EDC313FDDEF2C2909D
:01027F00225C
:1001ED00C290C291D2907E08C291EF139292D29199
:1001FD00EFC313FFDEF2E4FF00007E08EFC313FF31
:10020D00C291309203430780D291DEF0C290D29119
:04021D00C292D29225
:0102210022BA
:10022200AC07AA05E4FD7F8E120257AD047F80124F
:100232000257AD027F82120257AD037F841202572A
:100242007D017F861202577D017F88120257E4FDED
:050252007F8C02025741
:040158008E0C8F0D6D
:10015C007F871201EDEF64317039050DE50D7002EA
:10016C00050CD39400E50C9404400BE4250DF50D1F
:10017C0074FC350CF50CAF0DAE0C1202A67F85127B
:10018C0001EDAB077F831201EDAD077F811201ED0D
:07019C00120222AE0CAF0DB0
:0101A3002239
:0801A4008F178E168D158C14C7
:1001AC007B1FAF17AE16AD15AC14A803120280EF6F
:1001BC005401FFEF24FF92B3AF1BAE1AAD19AC186C
:1001CC00A803120280EF5401FFEF24FF92B4C2B1D6
:1001DC0000D2B11BEBC3940050C8C2B20000D2B223
:0101EC0022F0
:04000300AB07AA0697
:10000700E4F50FF50EF50DF50CF513F512F511F5F1
:1000170010EB7805CEC313CE13D8F9F9EB541FFBB9
:10002700E4FAEAC399502AAF0FAE0EAD0DAC0C78C7
:10003700011202938F0F8E0E8D0D8C0CE50F44016C
:10004700F50FE50EF50EE50DF50DE50CF50C0A803F
:10005700D1E4FAEAC39B502AAF13AE12AD11AC102C
:1000670078011202938F138E128D118C10E51344B1
:1000770001F513E512F512E511F511E510F5100A72
:1000870080D174FFF51BF51AF519F518AF0FAE0EF1
:10009700AD0DAC0C1201A485131B85121A8511191D
:0E00A7008510187F007E007D007C000201A401
:03000000020329CF
:0C032900787FE4F6D8FD75811B02010B03
:10028000E8600FECC313FCED13FDEE13FEEF13FF5C
:03029000D8F12280
:10029300E8600FEFC333FFEE33FEED33FDEC33FCC9
:0302A300D8F1226D
:00000001FF
