:1001E900E4F50BF50AF509F508F50C750D0175C16E
:1001F90035E4FBFDFF12037012025B8E0C8F0D7547
:10020900C135E50B2401F50BE4350AF50AE4350996
:10021900F509E43508F508E47F01FEFDFCAB0BAAFE
:100229000AA909A808C3120304701BAF0DAE0C126A
:1002390002B18E0C8F0DE4F50BF50AF509F5087F6F
:100249008112033B8FA0AF0DAE0C12000312000008
:0202590080AD76
:07046B0075C1357F6CDFFE57
:010472002267
:0D0444007EFAAF061EEF600512046B80F516
:010451002288
:1004320075C13500007F2B7E067DCBDDFEDEFCDF45
:01044200FABF
:010443002296
:0D045200E4F5C7F5C5F5C675C380F5C422F5
:1003EB0075C78275C5018FC48EC375C65A75C6A5F0
:0803FB0012046BAFC2120452A0
:0104030022D6
:1004040075C78275C5028FC48EC38DC275C65A75F1
:08041400C6A512046B0204529C
:10041C0075C78275C5038FC48EC375C65A75C6A5BC
:06042C0012046B020452F1
:10025B00750E00750F017F017E001203EB8F10E40A
:10026B00FFFE1203EBAD07E510FE7C00E42DF50F4E
:10027B00EC3EF50ED3E50F94FFE50E94035006E527
:10028B000F450E701C750E00750F01E4FFFE120476
:10029B001CE4FD7F01FE1204047D01E4FFFE120449
:0502AB0004AE0EAF0FD0
:0102B000222B
:0203CE00AC067B
:1003D0008C108F11E4FFFE12041CAD107F017E0013
:0B03E000120404AD11E4FFFE0204044F
:1003A500C290C291D2907E08C291EF139292D291DF
:1003B500EFC313FFDEF27E08C291ED139292D29144
:0803C500EDC313FDDEF2C2904E
:0103CD00220D
:10033B00C290C291D2907E08C291EF139292D29149
:10034B00EFC313FFDEF2E4FF00007E08EFC313FFE1
:10035B00C291309203430780D291DEF0C290D291CA
:04036B00C292D292D6
:01036F00226B
:10037000AC07AA05E4FD7F8E1203A5AD047F8012B1
:1003800003A5AD027F821203A5AD037F841203A5EE
:100390007D017F861203A57D017F881203A5E4FD00
:0503A0007F8C0203A5A3
:0402B1008E0E8F0F0F
:1002B500E50F450E7005F50E750F017F8112033BA5
:1002C500BF012A050FE50F7002050ED39400E50E58
:1002D5009404400BE4250FF50F74FC350EF50EAFB5
:1002E5000FAE0E1203CEE4FBFDFF120370AE0EAF90
:0102F5000FF9
:0102F60022E5
:080106008F1C8E1B8D1A8C1951
:10010E007B077A00AF1CAE1BAD1AAC19A903A80170
:10011E00120315EF5401FFEF24FF92B2AF20AE1F72
:10012E00AD1EAC1DA801120315EF5401FFEF24FF05
:10013E0092B3EB2408F9AF1CAE1BAD1AAC19F81232
:10014E000315EF5401FFEF24FF92B6AF20AE1FADA3
:10015E001EAC1DA801120315EF5401FFEF24FF92F0
:10016E0094EB2410F9AF1CAE1BAD1AAC19F81203A8
:10017E0015EF5401FFEF24FF92B7AF20AE1FAD1E57
:10018E00AC1DA801120315EF5401FFEF24FF929549
:10019E00EB2418F9AF1CAE1BAD1AAC19F8120315EF
:1001AE00EF5401FFEF24FF9293AF20AE1FAD1EACB4
:1001BE001DA801120315EF5401FFEF24FF9296C202
:1001CE00B000D2B0EB1B70011AEBF47002EAF460CF
:0A01DE0003020112C2B10000D2B109
:0101E80022F4
:04000300AB07AA0697
:10000700E4F514F513F512F511F518F517F516F5CE
:1000170015EB7805CEC313CE13D8F9F50EEB541FA5
:10002700F50FE4F510E510C3950E504FE475140174
:10003700F513F512F511AF14AE13AD12AC11A910EB
:10004700A8011203288F148E138D128C111202F738
:10005700E47520FF751FFFF51EF51D120106AF148D
:10006700AE13AD12AC111202F7E4F520F51F751EA1
:10007700FF751DFF120106051080AAE4F510E510B3
:10008700C3950F502BAF18AE17AD16AC15780112EC
:1000970003288F188E178D168C15E5184401F5184F
:1000A700E517F517E516F516E515F515051080CED4
:1000B700E4751401F513F512F511AF14AE13AD1273
:1000C700AC11A90EA8011203288F148E138D128C60
:1000D700111202F7E518F520E517F51FE4F51EF5EF
:1000E7001D120106AF14AE13AD12AC111202F7E4E4
:0F00F700F520F51FE516F51EE515F51D020106AE
:0300000002045F98
:0C045F00787FE4F6D8FD7581200201E9E9
:0D02F700CFF4CFCEF4CECDF4CDCCF4CC229C
:10030400EB9FF5F0EA9E42F0E99D42F0E89C45F04F
:0103140022C6
:10031500E8600FECC313FCED13FDEE13FEEF13FFC6
:03032500D8F122EA
:10032800E8600FEFC333FFEE33FEED33FDEC33FC33
:03033800D8F122D7
:00000001FF
