:10021600E4F50BF50AF509F508F50C750D0175C140
:1002260035E4FBFDFF12039D1202888E0C8F0D75BF
:10023600C135E50B2401F50BE4350AF50AE4350969
:10024600F509E43508F508E47F01FEFDFCAB0BAAD1
:100256000AA909A808C3120331701BAF0DAE0C1210
:1002660002DE8E0C8F0DE4F50BF50AF509F5087F15
:10027600811203688FA0AF0DAE0C120003120000AE
:0202860080AD49
:0704980075C1357F6CDFFE2A
:01049F00223A
:0D0471007EFAAF061EEF600512049880F5BC
:01047E00225B
:10045F0075C13500007F2B7E067DCBDDFEDEFCDF18
:01046F00FA92
:010470002269
:0D047F00E4F5C7F5C5F5C675C380F5C422C8
:1004180075C78275C5018FC48EC375C65A75C6A5C2
:08042800120498AFC212047F18
:0104300022A9
:1004310075C78275C5028FC48EC38DC275C65A75C4
:08044100C6A512049802047F15
:1004490075C78275C5038FC48EC375C65A75C6A58F
:0604590012049802047F6A
:10028800750E00750F017F017E001204188F10E4AF
:10029800FFFE120418AD07E510FE7C00E42DF50FF3
:1002A800EC3EF50ED3E50F94FFE50E94035006E5FA
:1002B8000F450E701C750E00750F01E4FFFE120449
:1002C80049E4FD7F01FE1204317D01E4FFFE1204C2
:0502D80031AE0EAF0F76
:0102DD0022FE
:0203FB00AC064E
:1003FD008C108F11E4FFFE120449AD107F017E00B9
:0B040D00120431AD11E4FFFE020431C7
:1003D200C290C291D2907E08C291EF139292D291B2
:1003E200EFC313FFDEF27E08C291ED139292D29117
:0803F200EDC313FDDEF2C29021
:0103FA0022E0
:10036800C290C291D2907E08C291EF139292D2911C
:10037800EFC313FFDEF2E4FF00007E08EFC313FFB4
:10038800C291309203430780D291DEF0C290D2919D
:04039800C292D292A9
:01039C00223E
:10039D00AC07AA05E4FD7F8E1203D2AD047F801257
:1003AD0003D2AD027F821203D2AD037F841203D23A
:1003BD007D017F861203D27D017F881203D2E4FD79
:0503CD007F8C0203D249
:0402DE008E0E8F0FE2
:1002E200E50F450E7005F50E750F017F811203684B
:1002F200BF012A050FE50F7002050ED39400E50E2B
:100302009404400BE4250FF50F74FC350EF50EAF87
:100312000FAE0E1203FBE4FBFDFF12039DAE0EAF08
:010322000FCB
:0103230022B7
:10010D0075F008A4F9F81203558F148E138D128C07
:0B011D001174FFF520F51FF51EF51D05
:080128008F1C8E1B8D1A8C192F
:100130001203248F1C8E1B8D1A8C197B077A00AF3B
:100140001CAE1BAD1AAC19A903A801120342EF544F
:1001500001FFEF24FF92B2AF20AE1FAD1EAC1DA871
:1001600001120342EF5401FFEF24FF92B3EB240886
:10017000F9AF1CAE1BAD1AAC19F8120342EF5401D3
:10018000FFEF24FF92B6AF20AE1FAD1EAC1DA8013D
:10019000120342EF5401FFEF24FF9294EB2410F975
:1001A000AF1CAE1BAD1AAC19F8120342EF5401FF9D
:1001B000EF24FF92B7AF20AE1FAD1EAC1DA80112F9
:1001C0000342EF5401FFEF24FF9295EB2418F9AF9F
:1001D0001CAE1BAD1AAC19F8120342EF5401FFEF2D
:1001E00024FF9293AF20AE1FAD1EAC1DA8011203D9
:1001F00042EF5401FFEF24FF9296C2B000D2B0EB61
:100200001B70011AEBF47002EAF4600302013FC2B2
:05021000B10000D2B1B5
:0102150022C6
:04000300AB07AA0697
:10000700E4F514F513F512F511F518F517F516F5CE
:1000170015EB7805CEC313CE13D8F9F50EEB541FA5
:10002700F50FE4F510E50E131313541FFFE510C386
:100037009F501BE47514FFF513F512F511AF14AEBD
:1000470013AD12AC11E51012010D051080D7E4F5C0
:1000570014F513F512F511F510E50E5407FFE51029
:10006700C39F502BAF14AE13AD12AC11780112031E
:10007700558F148E138D128C11E5144401F514E578
:1000870013F513E512F512E511F511051080CAAF46
:1000970014AE13AD12AC11E50E131313541F120156
:1000A7000DE4F510E510C3950F502BAF18AE17AD43
:1000B70016AC1578011203558F188E178D168C15EF
:1000C700E5184401F518E517F517E516F516E515D2
:1000D700F515051080CEE4751401F513F512F51129
:1000E700AF14AE13AD12AC11A90EA8011203558FB0
:1000F700148E138D128C1185182085171F85161ED7
:0601070085151D02012810
:0300000002048C6B
:0C048C00787FE4F6D8FD7581200202168E
:0D032400CFF4CFCEF4CECDF4CDCCF4CC226E
:10033100EB9FF5F0EA9E42F0E99D42F0E89C45F022
:010341002299
:10034200E8600FECC313FCED13FDEE13FEEF13FF99
:03035200D8F122BD
:10035500E8600FEFC333FFEE33FEED33FDEC33FC06
:03036500D8F122AA
:00000001FF
