:10075300E4F524F523F522F521F525752601F52782
:10076300F528F529F52A75C135E4FBFDFF1208E2EA
:100773001207D38E258F267F017E0012094075252F
:100783000075260175C135E5242401F524E43523DC
:10079300F523E43522F522E43521F521AF26AE25F4
:1007A3001208298E258F26E4F529F52AAF26AE25D2
:1007B300120471052AE52A70020529C39402E5296A
:1007C300940040E81209761207D38E258F2680B451
:0709F60075C1357F6CDFFEC7
:0109FD0022D7
:0D09CF007EFAAF061EEF60051209F680F5F6
:0109DC0022F8
:1009BD0075C13500007F2B7E067DCBDDFEDEFCDFB5
:0109CD00FA2F
:0109CE002206
:0D09DD00E4F5C7F5C5F5C675C380F5C42265
:10095D0075C78275C5018FC48EC375C65A75C6A578
:08096D001209F6AFC21209DD08
:01097500225F
:10098F0075C78275C5028FC48EC38DC275C65A7561
:08099F00C6A51209F60209DDEC
:1009A70075C78275C5038FC48EC375C65A75C6A52C
:0609B7001209F60209DD41
:1007D3007532007533017F017E0012095D8F34E4A9
:1007E300FFFE12095DAD07E534FE7C00E42DF53311
:1007F300EC3EF532D3E53394FFE53294035006E53E
:10080300334532701C753200753301E4FFFE120963
:10081300A7E4FD7F01FE12098F7D01E4FFFE1209AB
:050823008FAE32AF337F
:0108280022AD
:02094000AC0603
:100942008C328F33E4FFFE1209A7AD327F017E00A5
:0B09520012098FAD33E4FFFE02098F95
:10091700C292C293D2927E08C293EF139294D2935B
:10092700EFC313FFDEF27E08C293ED139294D293C6
:08093700EDC313FDDEF2C292D4
:01093F002295
:1008AD00C292C293D2927E08C293EF139294D293C6
:1008BD00EFC313FFDEF2E4FF00007E08EFC313FF6A
:1008CD00C293309403430780D293DEF0C292D29349
:0408DD00C294D2945B
:0108E10022F4
:1008E200AC07AA05E4FD7F8E120917AD047F8012C2
:1008F2000917AD027F82120917AD037F841209170F
:100902007D017F861209177D017F88120917E4FD98
:050912007F8C020917B3
:040829008E2B8F2C57
:10082D00E52C452B7005F52B752C017F811208AD3C
:10083D00EFC39415402A052CE52C7002052BD3949B
:10084D0000E52B9404400BE4252CF52C74FC352B82
:10085D00F52BAF2CAE2B120940E4FBFDFF1208E285
:04086D00AE2BAF2CD3
:010871002264
:0809FE000000000000000000F1
:060261008B558A568957F7
:1002670078587C007D007BFF7A0979FE7E007F0449
:100277001200D3785C7C007D007BFF7A0A79027ECE
:10028700007F041200D3E4F560AB55AA56A95712B4
:10029700017BE56075F008A4F9F81201558F61A993
:1002A7005790000412019BE56075F008A4F9F81255
:1002B7000155E56130E009745C2560F8E64480F695
:1002C700E56130E109745C2560F8E64404F6E56110
:1002D70030E20974582560F8E64401F6E56130E339
:1002E70009745C2560F8E64410F6E56130E40974AA
:1002F700582560F8E64480F6E56130E5097458252D
:1003070060F8E64402F6E56130E60974582560F8BE
:10031700E64440F6E56130E70974582560F8E6449D
:1003270008F6EF30E009745C2560F8E64408F6EF5C
:1003370030E10974582560F8E64420F6EF30E20909
:1003470074582560F8E64410F6EF30E309745C252D
:1003570060F8E64440F6EF30E40974582560F8E6A3
:100367004404F6EF30E509745C2560F8E64420F6AE
:10037700EF30E609745C2560F8E64402F6EF30E7F3
:1003870009745C2560F8E64401F60560E5606404DD
:100397006003020290AF5AE4FCFDFEFBFA7901F814
:1003A7001200F9C004C005C006C007AF5BE4FCFD3E
:1003B700FEFBFAF978011200F9D003D002D001D080
:1003C70000EF2BFFEE3AFEED39FDEC38FCA804A94F
:1003D70005AA06AB07E559FEE4FCFD2BFBEA3EFA4E
:1003E700ED39F9EC38F8E4FEEB2558FFEE3AFEED6F
:1003F70039FDEC38FCAB55AA56A9571201CBAF5EB5
:10040700E4FCFDFEFBFA7901F81200F9C004C0050F
:10041700C006C007AF5FE4FCFDFEFBFAF9780112E6
:1004270000F9D003D002D001D000EF2BFFEE3AFE47
:10043700ED39FDEC38FCA804A905AA06AB07E55D74
:10044700FEE4FCFD2BFBEA3EFAED39F9EC38F8E463
:10045700FEEB255CFFEE3AFEED39FDEC38FCAB55C3
:0A046700AA56A9579000040201E50F
:1006290075F008A4F9F81201688F388E378D368C69
:0B0639003574FFF544F543F542F54130
:100644001201488F488E478D468C4585444C85431E
:100654004B85424A8541497B007A00794512026103
:1006640085485085474F85464E85454D854C548574
:100674004B53854A528549517B1F7A00AF50AE4F88
:10068400AD4EAC4DA903A801120155EF5401FFEF83
:1006940024FF92B2AF54AE53AD52AC51A801120133
:1006A40055EF5401FFEF24FF92B3C2B000D2B0EB78
:1006B4001B70011ABAFFC5BBFFC2C2B10000D2B1A0
:0106C4002213
:04047100AB07AA0625
:10047500E4F538F537F536F535F53CF53BF53AF560
:100485003975C135EA5403AF03AD07FCEDAE047809
:1004950005CEC313CE13D8F9F532ED541FF533E469
:1004A500F534E532131313541FFFE534C39F501B76
:1004B500E47538FFF537F536F535AF38AE37AD3677
:1004C500AC35E534120629053480D7E4F538F5371F
:1004D500F536F535F534E5325407FFE534C39F505D
:1004E5002BAF38AE37AD36AC3578011201688F3891
:1004F5008E378D368C35E5384401F538E537F537D7
:10050500E536F536E535F535053480CAAF38AE370D
:10051500AD36AC35E532131313541F120629E4F535
:1005250034E534C39533502BAF3CAE3BAD3AAC39D3
:1005350078011201688F3C8E3B8D3A8C39E53C443D
:1005450001F53CE53BF53BE53AF53AE539F5390585
:100555003480CEE4753801F537F536F535AF38AE6C
:1005650037AD36AC35A932A8011201688F388E3700
:100575008D368C35853C44853B43853A42853941EA
:0305850002064427
:10087200D2B6D2B720B617E4F5321209F60532E540
:1008820032C3941940F4D2B620B6037F012220B7B6
:1008920017E4F5321209F60532E532C3941940F431
:0A08A200D2B720B7037F02227F00C7
:0108AC002229
:1006C500752C00752D64752E00752F05C200120757
:1006D500D38E308F31806EE52F152FAE2E7002151B
:1006E5002E4E6069752C00752D64AF31AE30120445
:1006F50071E52D152D7002152CD3E52D9400E52CF3
:10070500940050E6752C00752D64E4FFFE1204710B
:10071500E52D152D7002152CD3E52D9400E52C94AF
:100725000050E7120872BF01AE74202531F531E49F
:100735003530F530533003AF31AE30120940E4FBAC
:0D074500FDFF1208E2752E00752F05808A59
:010752002284
:10058800752C00752D64752E00752F05C200120795
:10059800D38E308F3102061FE52F152FAE2E700235
:1005A800152E4E607B30B678752C00752D64AF31F2
:1005B800AE30120471E52D152D7002152CD3E52DE2
:1005C8009400E52C940050E6752C00752D64E4FF2A
:1005D800FE120471E52D152D7002152CD3E52D940E
:1005E80000E52C940050E7120872BF02ABE53154C5
:1005F8001F700E74E12531F53174FF3530F5308008
:10060800080531E53170020530AF31AE30120940CE
:10061800E4FBFDFF1208E2752E00752F050205A008
:0106280022AF
:10097600E4F52B1208728F2BE52BB401030206C592
:08098600E52BB4020312058801
:01098E002246
:030000000209EA08
:0C09EA00787FE4F6D8FD758161020753A8
:10000300E709F608DFFA8046E709F208DFFA803EDF
:1000130088828C83E709F0A3DFFA8032E309F608CC
:10002300DFFA8078E309F208DFFA807088828C8334
:10003300E309F0A3DFFA806489828A83E0A3F608E8
:10004300DFFA805889828A83E0A3F208DFFA804CC2
:1000530080D280FA80C680D4806980F28033801099
:1000630080A680EA809A80A880DA80E280CA803302
:1000730089828A83ECFAE493A3C8C582C8CCC5837A
:10008300CCF0A3C8C582C8CCC583CCDFE9DEE7804A
:100093000D89828A83E493A3F608DFF9ECFAA9F0C9
:1000A300EDFB2289828A83ECFAE0A3C8C582C8CC1F
:1000B300C583CCF0A3C8C582C8CCC583CCDFEADE38
:1000C300E880DB89828A83E493A3F208DFF980CC9A
:1000D30088F0EF60010E4E60C388F0ED2402B40493
:1000E3000050B9F582EB2402B4040050AF2323453A
:0600F3008223900053730C
:1000F900E88FF0A4CC8BF0A42CFCE98EF0A42CFCA6
:100109008AF0EDA42CFCEA8EF0A4CDA8F08BF0A423
:100119002DCC3825F0FDE98FF0A42CCD35F0FCEB82
:100129008EF0A4FEA9F0EB8FF0A4CFC5F02ECD3947
:0F013900FEE43CFCEAA42DCE35F0FDE43CFC22B4
:0D014800CFF4CFCEF4CECDF4CDCCF4CC224C
:10015500E8600FECC313FCED13FDEE13FEEF13FF88
:03016500D8F122AC
:10016800E8600FEFC333FFEE33FEED33FDEC33FCF5
:03017800D8F12299
:10017B00BB010789828A830202155005E9F8020246
:10018B0009BBFE05E9F802022189828A8302022D4E
:10019B00BB010DE58229F582E5833AF58302021551
:1001AB005007E92582F8020209BBFE07E92582F810
:1001BB00020221E58229F582E5833AF58302022DBD
:1001CB00BB010789828A830202495005E9F80202C2
:0A01DB003DBBFE05E9F802025522C3
:1001E500BB010DE58229F582E5833AF583020249D3
:1001F5005007E92582F802023DBBFE07E92582F892
:04020500020255227A
:0C020900E6FC08E6FD08E6FE08E6FF2221
:0C021500E0FCA3E0FDA3E0FEA3E0FF225C
:0C022100E2FC08E2FD08E2FE08E2FF2219
:10022D00E493FC740193FD740293FE740393FF2217
:0C023D00ECF608EDF608EEF608EFF622ED
:0C024900ECF0A3EDF0A3EEF0A3EFF02228
:0C025500ECF208EDF208EEF208EFF222E5
:00000001FF
