:1001E900E4F50BF50AF509F508F50C750D0175C16E
:1001F90035120444E4FBFDFF1203821202B38E0C94
:100209008F0D75C135E50B2401F50BE4350AF50AA7
:10021900E43509F509E43508F5087FA07E867D01F6
:100229007C00AB0BAA0AA909F8C3120316701BAF0D
:100239000DAE0C12025C8E0C8F0DE4F50BF50AF570
:1002490009F5087F8112034D8FA0AF0DAE0C120086
:030259000380AF70
:07046F0075C1357F6CDFFE53
:010476002263
:1004440075C13500007F2B7E067DCBDDFEDEFCDF33
:01045400FAAD
:010455002284
:0D045600E4F5C7F5C5F5C675C380F5C422F1
:1003FD0075C78275C5018FC48EC375C65A75C6A5DE
:08040D0012046FAFC212045685
:0104150022C4
:1004160075C78275C5028FC48EC38DC275C65A75DF
:08042600C6A512046F02045682
:10042E0075C78275C5038FC48EC375C65A75C6A5AA
:06043E0012046F020456D7
:1002B300750E00750F017F017E001203FD8F10E4A0
:1002C300FFFE1203FDAD07E510FE7C00E42DF50FE4
:1002D300EC3EF50ED3E50F94FFE50E94035006E5CF
:1002E3000F450E701C750E00750F01E4FFFE12041E
:1002F3002EE4FD7F01FE1204167D01E4FFFE1204CD
:0503030016AE0EAF0F65
:0103080022D2
:0203E000AC0669
:1003E2008C108F11E4FFFE12042EAD107F017E00EF
:0B03F200120416AD11E4FFFE02041619
:1003B700C290C291D2907E08C291EF139292D291CD
:1003C700EFC313FFDEF27E08C291ED139292D29132
:0803D700EDC313FDDEF2C2903C
:0103DF0022FB
:10034D00C290C291D2907E08C291EF139292D29137
:10035D00EFC313FFDEF2E4FF00007E08EFC313FFCF
:10036D00C291309203430780D291DEF0C290D291B8
:04037D00C292D292C4
:010381002259
:10038200AC07AA05E4FD7F8E1203B7AD047F80128D
:1003920003B7AD027F821203B7AD037F841203B7A6
:1003A2007D017F861203B77D017F881203B7E4FDCA
:0503B2007F8C0203B77F
:04025C008E0E8F0F64
:10026000E50F450E7005F50E750F017F8712034DE2
:10027000EF64317039050FE50F7002050ED394005D
:10028000E50E9404400BE4250FF50F74FC350EF5D4
:100290000EAF0FAE0E1203E07F8512034DAB077F4A
:1002A0008312034DAD077F8112034D120382AE0E00
:0202B000AF0F8E
:0102B2002229
:080106008F1C8E1B8D1A8C1951
:10010E007B077A00AF1CAE1BAD1AAC19A903A80170
:10011E00120327EF5401FFEF24FF92B2AF20AE1F60
:10012E00AD1EAC1DA801120327EF5401FFEF24FFF3
:10013E0092B3EB2408F9AF1CAE1BAD1AAC19F81232
:10014E000327EF5401FFEF24FF92B6AF20AE1FAD91
:10015E001EAC1DA801120327EF5401FFEF24FF92DE
:10016E0094EB2410F9AF1CAE1BAD1AAC19F81203A8
:10017E0027EF5401FFEF24FF92B7AF20AE1FAD1E45
:10018E00AC1DA801120327EF5401FFEF24FF929537
:10019E00EB2418F9AF1CAE1BAD1AAC19F8120327DD
:1001AE00EF5401FFEF24FF9293AF20AE1FAD1EACB4
:1001BE001DA801120327EF5401FFEF24FF9296C2F0
:1001CE00B000D2B0EB1B70011AEBF47002EAF460CF
:0A01DE0003020112C2B10000D2B109
:0101E80022F4
:04000300AB07AA0697
:10000700E4F514F513F512F511F518F517F516F5CE
:1000170015EB7805CEC313CE13D8F9F50EEB541FA5
:10002700F50FE4F510E510C3950E504FE475140174
:10003700F513F512F511AF14AE13AD12AC11A910EB
:10004700A80112033A8F148E138D128C1112030913
:10005700E47520FF751FFFF51EF51D120106AF148D
:10006700AE13AD12AC11120309E4F520F51F751E8E
:10007700FF751DFF120106051080AAE4F510E510B3
:10008700C3950F502BAF18AE17AD16AC15780112EC
:10009700033A8F188E178D168C15E5184401F5183D
:1000A700E517F517E516F516E515F515051080CED4
:1000B700E4751401F513F512F511AF14AE13AD1273
:1000C700AC11A90EA80112033A8F148E138D128C4E
:1000D70011120309E518F520E517F51FE4F51EF5DC
:1000E7001D120106AF14AE13AD12AC11120309E4D1
:0F00F700F520F51FE516F51EE515F51D020106AE
:0300000002046394
:0C046300787FE4F6D8FD7581200201E9E5
:0D030900CFF4CFCEF4CECDF4CDCCF4CC2289
:10031600EB9FF5F0EA9E42F0E99D42F0E89C45F03D
:0103260022B4
:10032700E8600FECC313FCED13FDEE13FEEF13FFB4
:03033700D8F122D8
:10033A00E8600FEFC333FFEE33FEED33FDEC33FC21
:03034A00D8F122C5
:00000001FF
