:1000D600E4F50BF50AF509F508F50C750D0175C182
:1000E60035120382E4FBFDFF1202C01201A08E0C42
:1000F6008F0D75C135E50B2401F50BE4350AF50ABC
:10010600E43509F509E43508F5087FA07E867D010A
:100116007C00AB0BAA0AA909F8C3120254701BAFE4
:100126000DAE0C1201498E0C8F0DE4F50BF50AF598
:1001360009F5087F8112028B8FA0AF0DAE0C12005D
:030146000380AF84
:0703AD0075C1357F6CDFFE16
:0103B4002226
:1003820075C13500007F2B7E067DCBDDFEDEFCDFF6
:01039200FA70
:010393002247
:0D039400E4F5C7F5C5F5C675C380F5C422B4
:10033B0075C78275C5018FC48EC375C65A75C6A5A0
:08034B001203ADAFC2120394CE
:010353002287
:1003540075C78275C5028FC48EC38DC275C65A75A2
:08036400C6A51203AD020394CB
:10036C0075C78275C5038FC48EC375C65A75C6A56D
:06037C001203AD02039420
:1001A000750E00750F017F017E0012033B8F10E476
:1001B000FFFE12033BAD07E510FE7C00E42DF50FBA
:1001C000EC3EF50ED3E50F94FFE50E94035006E5E3
:1001D0000F450E701C750E00750F01E4FFFE120333
:1001E0006CE4FD7F01FE1203547D01E4FFFE120367
:0501F00054AE0EAF0F3C
:0101F50022E7
:02031E00AC062B
:100320008C108F11E4FFFE12036CAD107F017E0074
:0B033000120354AD11E4FFFE02035461
:1002F500C290C291D2907E08C291EF139292D29190
:10030500EFC313FFDEF27E08C291ED139292D291F4
:08031500EDC313FDDEF2C290FE
:01031D0022BD
:10028B00C290C291D2907E08C291EF139292D291FA
:10029B00EFC313FFDEF2E4FF00007E08EFC313FF92
:1002AB00C291309203430780D291DEF0C290D2917B
:0402BB00C292D29287
:0102BF00221C
:1002C000AC07AA05E4FD7F8E1202F5AD047F801213
:1002D00002F5AD027F821202F5AD037F841202F5B2
:1002E0007D017F861202F57D017F881202F5E4FD13
:0502F0007F8C0202F505
:040149008E0E8F0F78
:10014D00E50F450E7005F50E750F017F8712028BB9
:10015D00EF64317039050FE50F7002050ED3940071
:10016D00E50E9404400BE4250FF50F74FC350EF5E8
:10017D000EAF0FAE0E12031E7F8512028BAB077FE3
:10018D008312028BAD077F8112028B1202C0AE0E5D
:02019D00AF0FA2
:01019F00223D
:0801F6008F1A8E198D188C1769
:1001FE007B1F7A00AF1AAE19AD18AC17A903A80170
:10020E00120265EF5401FFEF24FF92B2AF1EAE1D36
:10021E00AD1CAC1BA801120265EF5401FFEF24FFC9
:10022E0092B3C2B000D2B0EB1B70011ABAFFC5BBBD
:08023E00FFC2C2B10000D2B101
:010246002295
:04000300AB07AA0697
:10000700E4F512F511F510F50FF516F515F514F5DC
:1000170013EB7805CEC313CE13D8F9F50EEB541FA7
:10002700FBE4FAEAC3950E502AAF12AE11AD10AC3D
:100037000F78011202788F128E118D108C0FE51236
:100047004401F512E511F511E510F510E50FF50F6F
:100057000A80D0E4FAEAC39B502AAF16AE15AD1456
:10006700AC1378011202788F168E158D148C13E558
:10007700164401F516E515F515E514F514E513F520
:10008700130A80D1AF12AE11AD10AC0F1202477434
:10009700FFF51EF51DF51CF51B1201F6E47512019F
:1000A700F511F510F50FAF12AE11AD10AC0FA90E8B
:1000B700A8011202788F128E118D108C0F12024731
:0F00C70085161E85151D85141C85131B0201F659
:030000000203A157
:0C03A100787FE4F6D8FD75811E0200D6BE
:0D024700CFF4CFCEF4CECDF4CDCCF4CC224C
:10025400EB9FF5F0EA9E42F0E99D42F0E89C45F000
:010264002277
:10026500E8600FECC313FCED13FDEE13FEEF13FF77
:03027500D8F1229B
:10027800E8600FEFC333FFEE33FEED33FDEC33FCE4
:03028800D8F12288
:00000001FF
