:1006CE00E4F524F523F522F521F52575260175C1EE
:1006DE0035E4FBFDFF1208F91207ED8E258F267506
:1006EE00C135E5242401F524E43523F523E4352230
:1006FE00F522E43521F521E47F01FEFDFCAB24AAB1
:10070E0023A922A821C3120155701BAF26AE2512B4
:10071E0008438E258F26E4F524F523F522F5217F57
:10072E00811208C48FA00526E52670020525E4F582
:10073E0027F528AF26AE251204820528E52870027B
:10074E000527C39464E527940040E812098D808F35
:070A0D0075C1357F6CDFFEAF
:010A140022BF
:0D09E6007EFAAF061EEF6005120A0D80F5C7
:0109F30022E1
:1009D40075C13500007F2B7E067DCBDDFEDEFCDF9E
:0109E400FA18
:0109E50022EF
:0D09F400E4F5C7F5C5F5C675C380F5C4224E
:1009740075C78275C5018FC48EC375C65A75C6A561
:08098400120A0DAFC21209F4C2
:01098C002248
:1009A60075C78275C5028FC48EC38DC275C65A754A
:0809B600C6A5120A0D0209F4A6
:1009BE0075C78275C5038FC48EC375C65A75C6A515
:0609CE00120A0D0209F4FB
:1007ED007530007531017F017E001209748F32E47E
:1007FD00FFFE120974AD07E532FE7C00E42DF531E4
:10080D00EC3EF530D3E53194FFE53094035006E529
:10081D00314530701C753000753101E4FFFE120951
:10082D00BEE4FD7F01FE1209A67D01E4FFFE120963
:05083D00A6AE30AF3152
:010842002293
:02095700AC06EC
:100959008C308F31E4FFFE1209BEAD307F017E007D
:0B0969001209A6AD31E4FFFE0209A652
:10092E00C290C291D2907E08C291EF139292D29150
:10093E00EFC313FFDEF27E08C291ED139292D291B5
:08094E00EDC313FDDEF2C290BF
:01095600227E
:1008C400C290C291D2907E08C291EF139292D291BB
:1008D400EFC313FFDEF2E4FF00007E08EFC313FF53
:1008E400C291309203430780D291DEF0C290D2913C
:0408F400C292D29248
:0108F80022DD
:1008F900AC07AA05E4FD7F8E12092EAD047F801294
:10090900092EAD027F8212092EAD037F8412092EB2
:100919007D017F8612092E7D017F8812092EE4FD53
:050929007F8C02092E85
:040843008E298F2A41
:10084700E52A45297005F529752A017F811208C413
:10085700BF012A052AE52A70020529D39400E52954
:100867009404400BE4252AF52A74FC3529F529AFB1
:100877002AAE29120957E4FBFDFF1208F9AE29AF8A
:010887002A46
:01088800224D
:080A15000000000000000000D9
:060272008B538A548955EC
:1002780078567C007D007BFF7A0A79157E007F0422
:100288001200D3785A7C007D007BFF7A0A79197EA8
:10029800007F041200D3E4F55EAB53AA54A95512AB
:1002A800018CE55E75F008A4F9F81201668F5FA964
:1002B800559000041201ACE55E75F008A4F9F81237
:1002C8000166E55F30E009745A255EF8E64480F679
:1002D800E55F30E109745A255EF8E64404F6E55F07
:1002E80030E2097456255EF8E64401F6E55F30E32E
:1002F80009745A255EF8E64410F6E55F30E409749F
:1003080056255EF8E64480F6E55F30E50974562523
:100318005EF8E64402F6E55F30E6097456255EF8B5
:10032800E64440F6E55F30E7097456255EF8E64492
:1003380008F6EF30E009745A255EF8E64408F6EF4F
:1003480030E1097456255EF8E64420F6EF30E209FC
:100358007456255EF8E64410F6EF30E309745A2522
:100368005EF8E64440F6EF30E4097456255EF8E698
:100378004404F6EF30E509745A255EF8E64420F6A1
:10038800EF30E609745A255EF8E64402F6EF30E7E6
:1003980009745A255EF8E64401F6055EE55E6404D4
:1003A80060030202A1AF58E4FCFDFEFBFA7901F8F4
:1003B8001200F9C004C005C006C007AF59E4FCFD2F
:1003C800FEFBFAF978011200F9D003D002D001D06F
:1003D80000EF2BFFEE3AFEED39FDEC38FCA804A93E
:1003E80005AA06AB07E557FEE4FCFD2BFBEA3EFA3F
:1003F800ED39F9EC38F8E4FEEB2556FFEE3AFEED60
:1004080039FDEC38FCAB53AA54A9551201DCAF5C9A
:10041800E4FCFDFEFBFA7901F81200F9C004C005FE
:10042800C006C007AF5DE4FCFDFEFBFAF9780112D7
:1004380000F9D003D002D001D000EF2BFFEE3AFE36
:10044800ED39FDEC38FCA804A905AA06AB07E55B65
:10045800FEE4FCFD2BFBEA3EFAED39F9EC38F8E452
:10046800FEEB255AFFEE3AFEED39FDEC38FCAB53B6
:0A047800AA54A9559000040201F6F1
:1006320075F008A4F9F81201798F368E358D348C55
:0B0642003374FFF542F541F540F53F31
:10064D001201488F468E458D448C4385424A854123
:10065D0049854048853F477B007A007943120272F5
:10066D0085464E85454D85444C85434B854A52857F
:10067D00495185485085474F7B1F7A00AF4EAE4D8F
:10068D00AD4CAC4BA903A801120166EF5401FFEF6D
:10069D0024FF92B2AF52AE51AD50AC4FA801120132
:1006AD0066EF5401FFEF24FF92B3C2B000D2B0EB5E
:1006BD001B70011ABAFFC5BBFFC2C2B10000D2B197
:0106CD00220A
:02048200AA06C8
:10048400E4F536F535F534F533F53AF539F538F55F
:1004940037EA5403AD07FCEDAE047805CEC313CEA2
:1004A40013D8F9F530ED541FF531E4F532E5301386
:1004B4001313541FFFE532C39F501BE47536FFF539
:1004C40035F534F533AF36AE35AD34AC33E53212F1
:1004D4000632053280D7E4F536F535F534F533F5D3
:1004E40032E5305407FFE532C39F502BAF36AE35AB
:1004F400AD34AC3378011201798F368E358D348C5E
:1005040033E5364401F536E535F535E534F534E5BE
:1005140033F533053280CAAF36AE35AD34AC33E58E
:1005240030131313541F120632E4F532E532C39527
:1005340031502BAF3AAE39AD38AC3778011201796E
:100544008F3A8E398D388C37E53A4401F53AE539DE
:10055400F539E538F538E537F537053280CEE475F9
:100564003601F535F534F533AF36AE35AD34AC334D
:10057400A930A8011201798F368E358D348C3385DC
:0E0584003A4285394185384085373F02064DA1
:10088900D2B4D2B520B417E4F530120A0D0530E51B
:1008990030C3941940F4D2B420B4037F012220B5A7
:1008A90017E4F530120A0D0530E530C3941940F408
:0A08B900D2B520B5037F02227F00B4
:0108C3002212
:10075E00752A00752B64752C00752D1EC2001207AC
:10076E00ED8E2E8F2F752C00752D1EE52D152DAEB1
:10077E002C7002152C4E6063752A00752B64AF2FFA
:10078E00AE2E120482E52B152B7002152AD3E52B03
:10079E009400E52A940050E6752A00752B64E4FF58
:1007AE00FE120482E52B152B7002152AD3E52B942D
:1007BE0000E52A940050E7120889BF01AE74202587
:1007CE002FF52FE4352EF52E532E03AF2FAE2E120E
:0E07DE000957E4FBFDFF1208F9D20020008746
:0107EC0022EA
:10059200752A00752B64752C00752D1EC20012077A
:1005A200ED8E2E8F2F752C00752D1EE52D152DAE7F
:1005B2002C7002152C4E6071752A00752B64AF2FBA
:1005C200AE2E120482E52B152B7002152AD3E52BD1
:1005D2009400E52A940050E6752A00752B64E4FF26
:1005E200FE120482E52B152B7002152AD3E52B94FB
:1005F20000E52A940050E7120889BF02AEE52F54A5
:100602001F700E74E1252FF52F74FF352EF52E8005
:1006120008052FE52F7002052EAF2FAE2E120957B7
:0F062200E4FBFDFF1208F9D2003000030205A728
:0106310022A6
:10098D00E4F5291208898F29E529B4010302075ED0
:08099D00E529B40203120592E2
:0109A500222F
:03000000020A01F0
:0C0A0100787FE4F6D8FD75815F0206CE18
:10000300E709F608DFFA8046E709F208DFFA803EDF
:1000130088828C83E709F0A3DFFA8032E309F608CC
:10002300DFFA8078E309F208DFFA807088828C8334
:10003300E309F0A3DFFA806489828A83E0A3F608E8
:10004300DFFA805889828A83E0A3F208DFFA804CC2
:1000530080D280FA80C680D4806980F28033801099
:1000630080A680EA809A80A880DA80E280CA803302
:1000730089828A83ECFAE493A3C8C582C8CCC5837A
:10008300CCF0A3C8C582C8CCC583CCDFE9DEE7804A
:100093000D89828A83E493A3F608DFF9ECFAA9F0C9
:1000A300EDFB2289828A83ECFAE0A3C8C582C8CC1F
:1000B300C583CCF0A3C8C582C8CCC583CCDFEADE38
:1000C300E880DB89828A83E493A3F208DFF980CC9A
:1000D30088F0EF60010E4E60C388F0ED2402B40493
:1000E3000050B9F582EB2402B4040050AF2323453A
:0600F3008223900053730C
:1000F900E88FF0A4CC8BF0A42CFCE98EF0A42CFCA6
:100109008AF0EDA42CFCEA8EF0A4CDA8F08BF0A423
:100119002DCC3825F0FDE98FF0A42CCD35F0FCEB82
:100129008EF0A4FEA9F0EB8FF0A4CFC5F02ECD3947
:0F013900FEE43CFCEAA42DCE35F0FDE43CFC22B4
:0D014800CFF4CFCEF4CECDF4CDCCF4CC224C
:10015500EB9FF5F0EA9E42F0E99D42F0E89C45F000
:010165002277
:10016600E8600FECC313FCED13FDEE13FEEF13FF77
:03017600D8F1229B
:10017900E8600FEFC333FFEE33FEED33FDEC33FCE4
:03018900D8F12288
:10018C00BB010789828A830202265005E9F8020224
:10019C001ABBFE05E9F802023289828A8302023E0A
:1001AC00BB010DE58229F582E5833AF5830202262F
:1001BC005007E92582F802021ABBFE07E92582F8EE
:1001CC00020232E58229F582E5833AF58302023E8A
:1001DC00BB010789828A8302025A5005E9F80202A0
:0A01EC004EBBFE05E9F80202662290
:1001F600BB010DE58229F582E5833AF58302025AB1
:100206005007E92582F802024EBBFE07E92582F86F
:040216000202662258
:0C021A00E6FC08E6FD08E6FE08E6FF2210
:0C022600E0FCA3E0FDA3E0FEA3E0FF224B
:0C023200E2FC08E2FD08E2FE08E2FF2208
:10023E00E493FC740193FD740293FE740393FF2206
:0C024E00ECF608EDF608EEF608EFF622DC
:0C025A00ECF0A3EDF0A3EEF0A3EFF02217
:0C026600ECF208EDF208EEF208EFF222D4
:00000001FF
